:100000000C946C270C947E270C947E270C947E27EE
:100010000C947E270C947E270C947E270C947E27CC
:100020000C947E270C947E270C947E270C947E27BC
:100030000C947E270C947E270C947E270C947E27AC
:100040000C94E4270C947E270C947E270C947E2736
:100050000C947E270C947E270C947E270C947E278C
:100060000C947E270C947E27770077007200720034
:100070007200720072007700770077007C007C00CD
:100080007C007C0081008100810081008600860068
:1000900086008600860086008600860086008B002B
:1000A0008B008B008B0090009000900090009400DB
:1000B0009400940094009400990099009E00A3007D
:1000C000A300A800A800AD00AD00AD00AD00A800E1
:1000D000A800AD00AD00B200B700B700BC00C10081
:1000E000C600CB00D000D500DF00E400EE00F30036
:1000F000FD00020102010701070107010C010C01CB
:10010000110116012001290133013D0147014C0174
:10011000510156015B0160016501650165016501E1
:100120006501600160015B015601510151014C0103
:100130004C014C014C01470142013D0133012901B1
:100140001B0111010201F800F300E900E400DF00E7
:10015000DA00D500D000C600BC00B200AD00A80097
:10016000A800AD00B700C600DA00E900F8000201FF
:1001700007010C010C010701020102010201020149
:10018000070107010C01110116011B011B011B01D5
:100190001B012001200124012401290129012E0134
:1001A0002E012E012E012E012901290129012401F0
:1001B00024012401290129012E012E012E013301E0
:1001C0003301330133012E012E012E012E012901AD
:1001D00029012901290129012901240124012401DE
:1001E0002901290129012E012E0133013301330197
:1001F00033012E012E0129012901240120012001B2
:1002000020011B011B011B011B011B011601160113
:10021000160111010C010C01070107010201020185
:10022000070107010C011101160116011601160143
:1002300016011601160116011B011B011B011B01F2
:10024000160111010C010701FD00FD00FD00FD007C
:1002500002010C01110111011601160111010C011D
:10026000070102010201070107010C0116011B0130
:100270002001240124012401290124012401240155
:10028000200120011B0116011601110116011B019D
:10029000200124012E01330138013D0138013301D1
:1002A0002E01290120011B011601110111010C0170
:1002B0000701FD00F800F300F300EE00EE00F3008C
:1002C000F800F800FD00FD00FD00FD00FD00F80055
:1002D000F800F800F300F300EE00EE00E900E4009F
:1002E000DF00DF00DF00DF00DF00DF00DF00DF0016
:1002F000DA00DA00D500D000CB00CB00CB00CB0079
:10030000CB00D000D000CB00C600C100BC00BC00B8
:10031000C600DA00020133017401C30118026C0245
:10032000BC02FC023303510356033D031003CB020E
:1003300071020E02A6014201E900A30072005900F9
:1003400054005E0077009000AD00C100D000DA00DC
:10035000DA00D500D000C600C600C100C100C1004F
:10036000C100C600C600C600C100C100C100BC007B
:10037000BC00BC00BC00BC00BC00C100C100C60089
:10038000CB00CB00D000D000D000D000D000D000F7
:10039000D000D000CB00CB00CB00CB00D000D000F1
:1003A000D500D500DA00DF00DF00DF00DF00DF006E
:1003B000DF00DF00DF00DF00E400E900EE00F30013
:1003C000F800FD0002010201070107010C01110103
:1003D00016011B01200129012E012E0133013301D9
:1003E00033013301330138013D014201470151011D
:1003F0005B0160016A016F01740174017901790187
:100400007901790179017E017E01830188018D01E5
:1004100092019701970192018D01830174016A0194
:1004200060015B01560151014C0147013D0133015F
:10043000240116010701F800EE00E400E400E400E6
:10044000E400E400E400DF00DA00D000C600C100F0
:10045000BC00B700B700B700BC00B700B700B200DF
:10046000AD00A3009E009E00990099009E00A3008D
:10047000A800AD00AD00B200B200B200B200B20000
:10048000B200B200B200B200AD00AD00A800A800FA
:10049000A800A800AD00AD00B200B200B200B700E5
:1004A000B200B200B200AD00AD00AD00AD00AD00D5
:1004B000AD00A800A800A800A300A300A300A3000B
:1004C000A800A800AD00B200B200B700B200B200B0
:1004D000B200AD00AD00AD00AD00B200B200B7009B
:1004E000BC00C100C100C600C600C600C600C600F0
:1004F000C600C600C600C600CB00CB00CB00C600BD
:10050000C600C600C100BC00BC00B700B700B70001
:10051000B700B700B700B700B700B700B200B2002D
:10052000AD00AD00A800A800A800AD00AD00AD0072
:10053000AD00AD00AD00AD00AD00AD00AD00AD0053
:10054000AD00B200B700B700BC00BC00C100C100E4
:10055000C100C600C600CB00CB00D000D000D50043
:10056000D500D500D500D500D500D500D000D000ED
:10057000CB00CB00C600C600C600CB00CB00D0002D
:10058000DA00DF00E400E900E900E900E900E40046
:10059000DF00DA00D500D000CB00C600C100BC00EF
:1005A000B200AD00A3009E00990099009900990047
:1005B0009E009E009E009E009E009E009E009E004B
:1005C0009E009E009E009E0099009900940090005D
:1005D0008B008B008B008B009000940094009400A3
:1005E000940090008B0086008100810081008100D2
:1005F000810081007C0077006D0068006800720057
:100600008B00B200E40024017401C8011D027102D4
:10061000BC02F7022403380333031003D50280021F
:100620001D02B0013D01DA008B005400360031009C
:1006300040005E007C009900AD00B200B200A8004E
:100640009E0094008B00860086008B009000940032
:1006500094009900990099009900990099009E00D2
:10066000A300A300A800A800A800A300A300A30063
:10067000A800A800AD00B200B700BC00BC00C100DB
:10068000C100C600C600CB00D000D000D500DA0003
:10069000DA00DA00DA00D500D500D500D500D500A3
:1006A000DA00DF00E400EE00F300F800FD00FD00DA
:1006B000FD00FD00FD00F800F800F300F300F80075
:1006C000FD0002010C01160124012E0133013D0140
:1006D000420147014C01510156015B0165016A016C
:1006E000740179018301880188018D018D018D01DB
:1006F00092019701970197019701970192018D014E
:1007000083017E0179017401740174017401740123
:100710006F016A0160015601420133012401160193
:100720000C010701070102010201FD00FD00F300B9
:10073000E900DF00D500CB00C600C100BC00BC0052
:10074000BC00BC00B700B700B200AD00AD00A8000F
:10075000A800A300A300A800A800AD00AD00AD0054
:10076000B200B200AD00AD00AD00AD00AD00AD0017
:10077000A800A800A800A800A800A300A300A30048
:100780009E009E0099009400900090008B008B00CA
:100790008B009000940099009E00A300A800A80080
:1007A000A800A800A800A300A300A300A800A80018
:1007B000AD00AD00B200B200AD00AD00A800A800D1
:1007C000A300A3009E009E009E009E009E009E002F
:1007D0009E009E009E009900990099009900990042
:1007E0009900990099009900990099009900940046
:1007F000940094009400900090008B008B00860081
:1008000086008600860086008600860086008600B8
:100810008600810081007C007C007C0077007700EE
:1008200077007700770077007700770077007C000B
:100830007C007C008100810081007C007C007700CE
:10084000720072006D00720072007C0081008600F0
:100850008B0090008B00860081007C007700720086
:1008600072007200720077007700770077007C00DA
:100870007C0081008B009400A300B200C100D00076
:10088000DF00E900EE00F300F800F800F800F800DF
:10089000FD00FD0002010701110116011B012401E9
:1008A00029012E0133013801380138013D013D0194
:1008B0003D013D01380138013801330133012E017A
:1008C000290129012401200120011B011601110128
:1008D00011010C01070107010701070107010C01C4
:1008E0000C010C010C0107010201FD00F800F300EE
:1008F000EE00E900E400E400E400E400E400E900C4
:10090000E900EE00EE00F300F300EE00EE00EE0072
:10091000E900E900E900E900E400E400E400DF00A8
:10092000D500D000C600C100BC00C100D000E90065
:10093000110142018301CD011D027602D002240380
:100940006E03A503C303C303A50365030B039E0244
:100950002702B5014C01F800BC009E0094009E00E7
:10096000B200C600DF00EE00F300F800F800F80067
:10097000F800FD000201070107010C010C0107014D
:100980000201FD00F800F300F300F800FD00020191
:10099000070107010C010701070102010201020121
:1009A000FD00FD00FD00FD00FD00FD00FD00FD005F
:1009B000FD00FD000201020107010C0111011101FE
:1009C000160116011601160116011101110111017E
:1009D0001601160116011B011B011B01200120013C
:1009E000240129012E01330138013D014201420158
:1009F0004701470147014C015101560160016A015D
:100A000074017E018D0192019C01A101A101A60149
:100A1000A601A601A601A601AB01B001B501B50171
:100A2000B901BE01BE01BE01B901B501B001AB0102
:100A3000A601A101A1019C019701920188017E01FB
:100A40006F016001510142013301290120011B01A5
:100A500016011601110107010201F800EE00E40081
:100A6000DA00D500D000CB00CB00C600C600C10024
:100A7000B700B200AD00A800A800A800A800AD0013
:100A8000AD00AD00A800A3009E009900900090006A
:100A900090009000940099009E009E009E00990096
:100AA000940090008B0086008600860086009000EF
:100AB00094009E00A300A800AD00A800A800A30019
:100AC0009E00990094009400900090009000940083
:100AD0009400990099009E009E00A300A300A3002B
:100AE000A3009E009E00990094009400940094003E
:100AF0009400990099009E009E009E009E009E001A
:100B0000990099009900990099009900990099001D
:100B10009400900090008B008B0086008600860079
:100B20008B008B008B009000900090009000900054
:100B30008B008B008B0090009000940099009E0029
:100B4000A300A300A800A800A800A3009E0099008D
:100B500090008B008B0086008B008B00900099002A
:100B600099009E009E009E009900940094009000C1
:100B70008B008B008B008B008B008B008B008B001D
:100B80008600860086008600860086008600860035
:100B900086008B008B008B009000940094009900DD
:100BA0009E009E00A300A3009E009E00990094005A
:100BB00090009000900090009000940094009900A4
:100BC000990099009900990099009400940094006C
:100BD0009900990099009E009E00A300A300A80020
:100BE000A800A800A800A800A800A3009E009900E3
:100BF000990094009400940099009E009E00A30028
:100C0000A300A300A300A300A300A300A800A800C2
:100C1000AD00AD00B200B200B200B200B200B2004E
:100C2000B200B200B200B700B700BC00BC00C10007
:100C3000C100C600CB00D000D500D500DA00DF002F
:100C4000E400E400E400E400E400E400DF00DF008E
:100C5000DF00DF00DF00DF00DF00DF00DA00DA00A6
:100C6000D500D000CB00C100BC00B200AD00A30095
:100C70009E009E00990099009E00A300A300A8007A
:100C8000AD00AD00B200B200AD00AD00A800A800FC
:100C9000A3009E009E00990094009400940094008C
:100CA00094009400940094009400940094009400A4
:100CB000990099009E009E00A300A300A3009E003F
:100CC0009900940090008B008B0090009900AD007B
:100CD000CB00F8002E016F01BE0118027102CB0299
:100CE000150356037D0382036E033303DE0276028F
:100CF000FF018D012001C6008600630054005400EE
:100D000063007C0090009E00AD00B700BC00BC00FA
:100D1000C100C600CB00D000D500DA00DA00DA004E
:100D2000D500D500D000D000D000D000D000D00039
:100D3000D500D000D000D000D000D500D500DA001A
:100D4000DA00DF00DF00E400E400E400E400DF009C
:100D5000DF00DF00E400DF00DF00DF00DF00DF0096
:100D6000DF00DF00DF00E400E900EE00F300F80040
:100D7000F800FD00FD000201020107010C01110154
:100D80001B01200124012401290129012901290134
:100D900029012E0133013D01420147015101560154
:100DA0005B01600165016A016F0179017E018801C3
:100DB0008D0197019C01A101A101A601AB01AB012D
:100DC000B001B501B901B901BE01C301C801C80133
:100DD000C801C301BE01B501AB019C0192018301B1
:100DE000790174016F016F016F016F016A01650183
:100DF0005B014C013801290116010701FD00F800D3
:100E0000F800F800F800F800F800F300E900E4004A
:100E1000DA00D000D000CB00CB00CB00CB00CB0061
:100E2000CB00CB00C600C600C100BC00B700B700B5
:100E3000B700B700B700B700BC00BC00BC00B700EB
:100E4000B700B200B200B200B200B200B700B70003
:100E5000BC00C100C600CB00CB00C600C100BC0076
:100E6000B700B200AD00AD00A800A800A800A8001F
:100E7000AD00B200B700B700BC00BC00BC00BC00B5
:100E8000B700B700B200B200B200B200B700C100B4
:100E9000CB00D000D500DA00DA00D500D000CB00BE
:100EA000C100BC00BC00BC00BC00C100C600CB003F
:100EB000CB00D000D000D000D000CB00CB00C600CB
:100EC000C600C100C100BC00BC00B700B700B20042
:100ED000AD00AD00AD00AD00B200B700BC00C10078
:100EE000C600C600C600C100BC00B200AD00A30031
:100EF000A3009E009E00A300A300A800A800A800D5
:100F0000A800A300A3009E009E009E00A300A300D3
:100F1000A800AD00B200B200B700B700B700B7003C
:100F2000B700B700B200B200AD00A800A3009E0059
:100F30009E00990099009E00A300A800AD00B20099
:100F4000B200B200AD00A800A800A3009E00990066
:100F50009400940090009000900090009000900009
:100F600094009400990099009E00A300A300A8009B
:100F7000A800A800A800A800A300A3009E009E004F
:100F80009E00A300A300A800AD00B200BC00C100F9
:100F9000C600C600CB00D000D500DA00DF00E900B3
:100FA000EE00F300F800FD00FD0002010201070160
:100FB00007010C011101160116011B01200124017A
:100FC00024012401240124012401240129012901EF
:100FD0002E01330138013D014201420147014C011C
:100FE0005101560156015B015B015B015B015B0135
:100FF0005B01560151014C014C014C014701470175
:10100000470147014701470142013D013D013801C8
:101010003301330133012E012E0129012401200166
:101020001B011601110111010C010C01110111012B
:101030000C010C0107010201FD00F800F300F300B0
:10104000F300F800FD00020107010C01110111017C
:1010500011010C0107010201FD00F800F800F80081
:10106000F800F800F800F800F300EE00E400DF00FC
:10107000DA00DA00E400F800160142017901B90152
:1010800004025302A302ED022E035B0373037303F6
:101090005B031F03D0026C02FF018D012901DA00FE
:1010A0009E008100770086009900B700D500EE0011
:1010B000FD000701070107010701070107010C01F6
:1010C00011011101110111010C0107010201FD00C3
:1010D000F800F800F800F800FD00FD000201020130
:1010E00002010701070102010201020102010201DE
:1010F00002010201070107010701070107010701BA
:101100000701070107010C010C01110116011B0168
:1011100020012401290129012E012901290124018D
:1011200020011B011B011B011B01200120012401C7
:1011300029012E01330138013D0147014C015601BF
:10114000600165016A016F01740174017401790124
:1011500079017E0183018D0192019C01A101A6010B
:10116000A601A601A601A601A101A101A101A1015B
:10117000A601AB01AB01AB01AB01A601A6019C012D
:1011800097018D01830179016F01650156014C01C1
:101190004201330124011B0111010701FD00F3008D
:1011A000EE00E900DF00DA00D500D000CB00C1007E
:1011B000BC00B700B200B200AD00AD00A800A800AE
:1011C000A300990094008B00860081007C007C00C5
:1011D0007C007C00810081008600860086008600FD
:1011E00081008100810081008100810081008100F7
:1011F0007C007C0077007700770072007200770037
:1012000077007C007C0081008100810081008100EA
:1012100081007C007C007C007C00810081008600D5
:101220008B008B009000900090008B008600860061
:101230008100810081008100860090009400990067
:101240009E00A300A3009E009900940090008B00D4
:101250008B008B0090009000940094009400940008
:1012600094009000900090009000900094009900ED
:10127000990099009900940090008B0086008600E8
:10128000810081007C008100810081008100860056
:1012900086008B008B008B008B008B008600860005
:1012A0008100810081007C007C007C007C007C004F
:1012B00077007700770072007200720077007C0080
:1012C000810086008B0090009000900090008B00C1
:1012D0008600810081007C007C0081008100860006
:1012E0008B008B009000900090008B008B0086009C
:1012F00081007C007C0077007C007C0081008600FF
:101300008B0090009400940090008B0081007C0082
:10131000770072006D00720077007C0081008B0006
:1013200090009400940094009400900090008B0032
:101330008B008B008B008B008B0090009000900046
:1013400090009000900090008B008B008B00860036
:101350008600860086008B009000940099009E0015
:10136000A800AD00AD00B200B200B200B200B20001
:10137000B200B700B700B700BC00C100C600C6008D
:10138000CB00D000D000D000D000D000CB00CB00EC
:10139000C600C100C100BC00BC00B700B700B2006D
:1013A000AD00AD00A800A300A3009E009E009E001B
:1013B0009E00990099009900990094009000900077
:1013C0008B00860086008100810081008100810001
:1013D00081008100860086008600860086008B00E2
:1013E0008B0090009400940094009400940094006A
:1013F00090008B008B0086008600810081007C00BD
:1014000077007700720077007C009000A800D5007C
:1014100007014C019701EB0145029902E3021F030A
:101420004203470333030103B7025302EB017E017A
:101430001601C100810059004500450054006300B9
:1014400077008B0094009E009E009E009E00A300EB
:10145000A300A800AD00B200B700B700B700B70006
:10146000B700B700B700BC00BC00BC00BC00BC00AB
:10147000BC00BC00BC00C100C100C600C600CB005F
:10148000CB00CB00CB00CB00CB00CB00CB00CB0004
:10149000D000D500DA00DF00E400E400E900E90054
:1014A000E900E900E900E900E900E900EE00EE00EA
:1014B000F300F800F800FD00FD00FD00020102014C
:1014C0000201020107010C01110116011B0120019B
:1014D000240129012E01330138013D014201470158
:1014E0004C0151015B0160016A016F0179017E01CC
:1014F00088018D019201970197019C01A101A10131
:10150000A101A101A101A101A101A101A101A101CB
:10151000A1019C019C019C01970192018D01830115
:1015200079016F0165015B0151014C0142013801F4
:101530002E0124011B010C010201F800EE00E9005C
:10154000E400E400E400E400E400E400DF00DA008A
:10155000DA00D500D000CB00C600C600C600C60029
:10156000CB00CB00D000D000D000D000CB00C60014
:10157000C100BC00B700B200AD00A800A800AD00DB
:10158000AD00B200B700B700BC00C100C100C6008A
:10159000C600CB00CB00CB00CB00CB00C600C60002
:1015A000C100C100C100C100C600C600CB00D00010
:1015B000D500DA00DA00DA00DF00DF00DF00DF004C
:1015C000DF00DF00DF00DF00DF00DA00D500D5003C
:1015D000D000D000CB00CB00D000D000D000D00095
:1015E000D000D000D000CB00CB00C600C600C600A3
:1015F000C600C600CB00D000D500D500DA00DA0066
:10160000DA00DA00DA00DA00D500D500D000D00028
:10161000CB00CB00CB00C600C600C100C100C1009A
:10162000C100C100C100C100C600C600CB00CB0094
:10163000CB00CB00CB00C600C100C100BC00BC0089
:10164000BC00C100C100C600C600C600C100BC008D
:10165000B200AD00A800A800A800A800AD00B2002C
:10166000B700BC00BC00BC00BC00BC00BC00B700A4
:10167000B700B700B700B700B700B700B700B700B2
:10168000B700B700B200B200B200B200B200B200C0
:10169000B200B200B200B700B700BC00BC00BC0092
:1016A000BC00B700B700B200B200AD00AD00AD00A5
:1016B000AD00AD00A800A800A800A300A300A300EF
:1016C0009E00A300A300A800AD00AD00B200B200D0
:1016D000AD00AD00A8009E0099009400900090001D
:1016E000940099009E00A300A800AD00AD00A800E2
:1016F000A800A300A300A300A300A300A800AD00BE
:10170000B200B200B200B200B200B700B700B7003A
:10171000BC00C100C600CB00D000D500D500D5006C
:10172000D500D500D500DA00E400E900F800020198
:101730000C011601200129012E01330138013D0160
:101740004201420147014C014C014C014C0147014F
:1017500042013D01380133013301330133013801C6
:101760003D013D014201420142014201420142016B
:101770003D013D013D013D01380138013801330192
:1017800033012E012E012E012E012E012E012E01DC
:101790002E012E012E012901290124012001200101
:1017A0001B01160111010C010701070107011101BD
:1017B00024013D016A019C01E1012C028502DE0247
:1017C00038038703C803F003FF03EB03B9036A037D
:1017D000060394021D02AB014C010701DA00C600AA
:1017E000CB00DA00F3000C01240133013D013D017F
:1017F0003D013D01380138013D013D013D014201FE
:101800003D013D013801330133012E012901290138
:101810002901290124012401240124012401240196
:10182000290129012E012E01330133013301330136
:101830003301330133013301330138013D014201EA
:1018400047014C0151015101510151015101510117
:10185000510151015101560156015B0160016001C6
:101860006001600160016001600160016001600170
:1018700065016A01740179017E0188018D0192017F
:101880009701A101A601B001B501BE01C301CD01BF
:10189000D201D701DC01E101E601E601EB01EB0138
:1018A000F001F501F501FA01FA01FF01FF0104025F
:1018B000040204020402FF01FA01F501EB01DC015C
:1018C000D201C301B901AB01A10197018D017E01D4
:1018D00074016501560147013D012E0129012001D6
:1018E0001B01160111010C010201F800EE00DF00DE
:1018F000D500CB00C600C100BC00BC00BC00C100CC
:10190000BC00BC00BC00B700B200AD00AD00AD0033
:10191000AD00AD00AD00AD00AD00A800A300A30078
:101920009E00990099009900990099009E009E00E0
:10193000A300A300A300A3009E009E009E009E00A3
:101940009E009E009E009E009900940094009000CE
:101950008B008B0086008B008B0090009000940021
:1019600094009400940094009900990099009E00BE
:101970009E009E00A300A3009E009E00990094007C
:10198000900090008B008B008B008B0090009000EB
:10199000940094009400940090008B0086008100D5
:1019A0007C007C007700770077007C007C00810061
:1019B000860086008B008B008B00860086008600E8
:1019C00086008600860086008600860081008100F1
:1019D0007C00770072006D0068006800680063009A
:1019E000630063006800680068006D006D007200AD
:1019F0007200720072006D006D0068006300590093
:101A0000590054005400540059005E005E00630009
:101A1000630068006800680068006800680068008B
:101A20006800680068006800680068006800680076
:101A300068006D006D0072007200720072006D002F
:101A40006D00680068006800680068006D00720042
:101A500077007C007C008100810081008100810092
:101A60007C007C007C0077007700770077007700AF
:101A70007C00810086008B00900090009000900018
:101A800090008B008B008B008B008B0090009400EB
:101A900094009400940094009400990099009E0092
:101AA000A800AD00B700C100C600CB00D000D00038
:101AB000D000CB00C600C100B700AD00A8009E005A
:101AC000990090008B0086008600810081007C00D8
:101AD0007700770072006D006D006D006D00720080
:101AE000770077007C0081008100810081007C000C
:101AF0007C007700720072006D006800680063006F
:101B00006300680068006D00720072007700770063
:101B1000770072006D006800680063006300630076
:101B200063006300630068006D007C009900C100E1
:101B3000F8003D019201E60140028F02D002F70257
:101B40000B030103DA029E024902EB018801240122
:101B5000CB0086004F002C001D00220031004A00FF
:101B60006800810094009E00A800A800A800A800BA
:101B7000A800AD00AD00AD00AD00A800A3009E0020
:101B8000990094009400940099009E00A800AD0074
:101B9000B200B700B700B700B700B200B200B200A1
:101BA000B200B200B700B700BC00BC00BC00BC0073
:101BB000BC00BC00BC00BC00BC00BC00C100C1003B
:101BC000C600CB00D500DA00DF00E400E900E90040
:101BD000EE00EE00F300F300F800FD00FD0002014E
:101BE000070107010C010C010701070107010701AB
:101BF0000C01110116012001290133013D014701AA
:101C00004C0156015B01600165016A016F017401BD
:101C100079017E018301880188018801880188019A
:101C20008801880188018D018D019201970197013A
:101C30009C019701970192018D0183017E0174013E
:101C40006A01600156014C01420138012E01240154
:101C500020011B01160111010C0107010201FD0009
:101C6000F300E900DF00D500D000CB00C600C100C2
:101C7000C100C100C100C600C600C600C100C1004D
:101C8000C100BC00B700B700B700B200B200B2009C
:101C9000B200B200B200B700B700B700BC00BC0091
:101CA000BC00BC00C100C100C100C100C100C10036
:101CB000C100C100C600C600C600C600C100C10008
:101CC000C100BC00BC00BC00BC00BC00C100C60020
:101CD000C600CB00D000D000D500D500D500D00084
:101CE000D000CB00C600C600C100C100C100C100C9
:101CF000C600C600D000D500DA00DA00DA00DA004B
:101D0000DA00D500D000CB00CB00C600C600CB0067
:101D1000CB00CB00D000D000D000D000D000D0004D
:101D2000D000D000CB00CB00CB00C600C600C10065
:101D3000C100BC00BC00BC00BC00BC00BC00BC00BE
:101D4000B700B700B700B700B700B700BC00BC00D1
:101D5000C100C100C100C100C100BC00BC00BC008A
:101D6000BC00BC00C100C600CB00CB00D000D0003E
:101D7000D000CB00CB00C600C100C100BC00C10038
:101D8000C100C600CB00CB00CB00CB00C600C10019
:101D9000BC00B200AD00A800A300A300A300A800EF
:101DA000AD00B200B700BC00BC00C100C100C6005D
:101DB000C600C600C600C600C600C100C100BC0007
:101DC000BC00B700B700B700B700B700B700B70056
:101DD000B700B700B700B700B700B700B200B20055
:101DE000B700BC00C100C600D000DA00DF00E4008C
:101DF000E400DF00DF00DA00D500D000CB00D00027
:101E0000D500DA00E400EE00F300FD00FD00020161
:101E10000201FD00FD00F800F800F800F300F300F7
:101E2000EE00E900DF00D500CB00C100B700B20032
:101E3000AD00AD00AD00AD00B200B200B200B20026
:101E4000B200B200AD00AD00AD00AD00AD00AD0020
:101E5000AD00AD00AD00A800A300A3009E009E0051
:101E600099009E009E00A300A300A800A800A8005F
:101E7000A800A800A800A800A800A300A30099003B
:101E800094008B0086008100810086009400B200DF
:101E9000D500070142017E01C30109024902850202
:101EA000B202D002D502CB02A30267021802BE0121
:101EB00060010701B7007C00540045004A0059004A
:101EC00072009000A300B200BC00B700B200AD00E9
:101ED000A800A800AD00B200BC00C100C600C1004F
:101EE000BC00B200A800A3009900990099009E00D0
:101EF000A800AD00B700BC00BC00C100BC00BC0025
:101F0000BC00BC00BC00BC00C100C600C600CB00C9
:101F1000CB00CB00CB00D000DA00E400EE00FD00E7
:101F20000C011B012E01380142014C0156015B01DD
:101F300065016A016F017401790179017E017E01F9
:101F40008301880192019701A101AB01B501B9019B
:101F5000BE01C301C301BE01BE01BE01C301C80170
:101F6000D201DC01EB01F501FF01090213021802A5
:101F70001D021D0222022202270227022C022C022D
:101F80002C022C022C0227022702270227022702FA
:101F90002C022C022C022C02270222021D02130208
:101FA0000902FA01F001E601DC01D201CD01C30111
:101FB000B901B001A6019C019201880183017E0153
:101FC000790174016F016A016A01650160015B01B9
:101FD0005B015601560156015101510151014C015D
:101FE00047014201380133012E012901290129014C
:101FF0002E01330138013D013D013D01380133011E
:102000002E0129012401240124012401290129018F
:10201000290129012901290129012401240124017F
:102020002401240124012401240120012001200194
:1020300020011B011B011B011B011B011B011601C0
:1020400016011601110111011101110111011101F6
:10205000110111010C010C01070107010201FD0032
:10206000FD00F800F800FD00FD00FD000201020186
:1020700002010201FD00F800F300EE00E900E400B7
:10208000E400DF00DF00DF00E400E400E400E4003F
:10209000E400E400DF00DF00DF00DA00DA00D50052
:1020A000D500D500D500D500D500DA00DA00DA0079
:1020B000DA00DA00D500D500D500D000CB00CB0087
:1020C000C600C100BC00B700B700B700BC00C1002B
:1020D000C600CB00D000D000D000CB00C100B700BC
:1020E000AD00A800A3009E00A300A800AD00B700AB
:1020F000BC00BC00BC00BC00B700B200AD00A80032
:10210000A3009E009900990094009400940094000C
:1021100094009400940099009E00A300A300A800DE
:10212000A800A300A300A300A300A300A300A8008D
:10213000AD00B200B700BC00C100C100BC00B700D8
:10214000B200AD00A800A300A300A800AD00B2003B
:10215000BC00CB00D500DA00E400E400E400DF00BE
:10216000DA00D500CB00C600C100BC00BC00BC003A
:10217000BC00B700B700B200AD00A8009E009400FC
:1021800090008600810081007C007C007C007C0047
:102190007C007C0081008100810086008600860032
:1021A000810081007C0077006D0068006800680095
:1021B000680068006D00720077007C007C007C0085
:1021C0007C00770072006D006800680063005E00AC
:1021D0005E005900590059005E00680077009400C5
:1021E000BC00EE002E017901C801180262029E02B5
:1021F000C102D002C10294024E02FA0197013801D5
:10220000DA009000540031001D001D0027003B0043
:102210004F005E006D0077007C0081008600860024
:1022200086008B008B008B008B008B008600860065
:1022300081008100810081008600900094009E0052
:10224000A300A800AD00AD00A800A800A3009E0058
:10225000990099009E00A300A800AD00B700BC0043
:10226000C100C100C100BC00B700B200AD00A800B1
:10227000A800A800A800AD00B200B700B700BC00DD
:10228000BC00BC00BC00C100C600C600D000D50028
:10229000DA00DF00E400E400E900E900EE00F3000A
:1022A000F800FD00020107010C01110111011601E6
:1022B0001601200124012E013D014C01560160014F
:1022C0006A016F016F016F016A016A016A016A01A7
:1022D0006F01740179017E017E01790174016F0142
:1022E0006A016501650160016001600160015B01D7
:1022F00051014701380129011B010C010201F800BD
:10230000EE00E900E400DF00DA00D500CB00C600F3
:10231000C100BC00B200AD00A8009E00990094006E
:102320009000900090009000900094009400940021
:10233000900090008B008600810081007C0081006D
:102340008100860090009400990099009900940003
:10235000940090008B00860086008B009000940013
:102360009900A300A800A800A800A3009900940069
:102370008B0086008100810081008600900094001F
:102380009E00A300A800A800A800A300A300A3002B
:102390009E009E009E009900990099009900990066
:1023A0009900990099009E00A300A800A800AD0024
:1023B000B200B200B200B200B200B200B200B2008D
:1023C000B200B700B700B700B200B200B200AD0073
:1023D000AD00A800A800A3009E009E0099009400F4
:1023E0009400900090009000900094009400990058
:1023F0009900990099009E009E009E00A300A300F2
:10240000A800A800A800A800A300A3009E009900AF
:102410009900990099009900990099009E009E00EA
:10242000A300A300A300A300A300A300A3009E0099
:102430009E009E009E009E00A300A300A300A30098
:10244000A300A300A3009E009E009E0099009E0092
:102450009E009E009E009E009E009E009E00990091
:1024600099009900990099009E009E00A300A80081
:10247000A800AD00B200B700B700BC00BC00BC00B3
:10248000BC00C100C100C100C100C600CB00D0002B
:10249000D500DF00E400EE00F300F800F800FD00D6
:1024A000F800F300EE00E400DA00D000C600C1003E
:1024B000BC00BC00BC00BC00BC00BC00B700B2004B
:1024C000AD00A8009E0099009900990099009E0017
:1024D0009E00A300A3009E009E0099009900940016
:1024E0009400990099009E009E009E009E009E0010
:1024F0009E0099009900990099009900990099000F
:10250000940090008B008600810081008100810092
:102510008100810086008B009400AD00D000020194
:1025200042019701F0014E02AD02F70233034C0362
:1025300047032403E30285021D02AB013D01DF00D6
:10254000900059003B0031003B004F0068008100C3
:102550009900AD00B700BC00B700B700B200AD00F5
:10256000AD00AD00AD00B200B700B700B700B700D6
:10257000B200AD00AD00AD00AD00AD00B200B700DF
:10258000BC00C100C100C100C100C100C100C60043
:10259000C600CB00D000D500DA00DF00DF00E40089
:1025A000E400E400DF00DF00DF00DF00DF00E40024
:1025B000E400E400E900E900E900E900EE00EE00D3
:1025C000EE00EE00EE00F300F800FD0007010C0144
:1025D00016011B0120012401290129012E013301CB
:1025E000330138013D01420147014C0151015601BF
:1025F0005B01600165016F0174017E018301880147
:10260000920197019C01A101A601AB01B001B501A6
:10261000B501B901B901B901B501B001AB01A10121
:102620009C019C01970197019701970192018801F4
:102630008301740165015601470138012901200118
:10264000160111010C0107010201FD00FD00F80057
:10265000F300EE00EE00E900E400DA00D500CB0064
:10266000C100BC00B200AD00AD00AD00AD00B700D0
:10267000BC00C100C600C600C600C100BC00B70057
:10268000B200AD00AD00B200B200B700BC00C100A6
:10269000C100C100BC00BC00B700B700B200B2006E
:1026A000B200B200B700B700B700B700B700BC0077
:1026B000BC00C100C600CB00D000D000D000D000CC
:1026C000D000CB00C600C600C600C600C600CB00C6
:1026D000CB00CB00CB00CB00CB00CB00CB00C600A7
:1026E000CB00CB00CB00CB00CB00CB00CB00CB0092
:1026F000CB00D000D000D500D500D500D000D00050
:10270000CB00CB00CB00CB00D000DA00E400EE0021
:10271000FD0007011601200129012E0138013D01AC
:102720003D014201420142013D013D0138013801B4
:102730003301330138013801380138013D013801D6
:1027400038013801330133013301330138013801D5
:102750003D01420147014C01510151015601510116
:1027600051014C014C014701470147014701470115
:10277000470147014701470147014701470142011E
:10278000420142014201420142013D013D01380145
:1027900033012E012E012E012E012E0133013801AD
:1027A0003D014201420142014201420142013D011B
:1027B00042014201420147014C014C0151015101CA
:1027C000560156015B01600165016A016F016F01ED
:1027D000740174016F016F016A0165016501600197
:1027E0005B01560151014701420138012E012401CC
:1027F0001B011601110111010C010C01070102015D
:102800000201FD00F800F300EE00EE00EE00E9002A
:10281000E900E400E400E400DF00DF00DA00DA00B1
:10282000DA00DA00DA00DA00DA00DA00DF00DF00CE
:10283000DF00E400E400E400DF00DA00D000C600BE
:10284000BC00B200A800A300A300A800B700D000FD
:10285000F30024016501B00109026702C6021A03F0
:102860005B038703960382035103FC0294021D025B
:10287000A6013801D50090005E004A0045005400D2
:102880006D0086009E00B200BC00C100C100C10006
:10289000BC00BC00BC00C100C100C600C600CB002B
:1028A000CB00C600C600C600C600CB00CB00D000DF
:1028B000D000D500D500D500D500D000D000CB0089
:1028C000CB00CB00CB00CB00CB00CB00CB00CB00B0
:1028D000CB00D000D000D000D500D500DA00DA005F
:1028E000DA00DA00DA00DF00DF00DF00DF00DF00FF
:1028F000DF00E400E900E900EE00F300F800FD006D
:10290000FD00FD00FD00FD00FD00F800F800FD00E9
:102910000201070111011B0124012E0133013801BD
:102920003D013D013D014201420147014C0156017B
:1029300060016A01740179018301830188018801C2
:102940008D018D018D018D018D018801880183012B
:10295000790174016F016501650160015B01560138
:1029600051014701420133012901200116010C01E7
:1029700007010201FD00FD00F800F300E900DF009F
:10298000D500C600BC00AD00A8009E0099009900CB
:1029900099009400940094009400900090008B00A3
:1029A0008600860081007C007C007C00810086001F
:1029B0008B008B009000940099009E009E009E006A
:1029C000A300A300A300A3009E009E009900940012
:1029D000940090008B008B008B008B009000940083
:1029E0009400990099009E009E009E009900990015
:1029F0009900940094009000900090009000900046
:102A000094009400990099009E009E009E009E00F4
:102A10009E0099009900940090008B008B00860026
:102A200086008B008B008B00900090008B008B0049
:102A30008600860081007C007C007C007C00810098
:102A4000860086008B008B00900090009000900024
:102A50008B008B008B008B008B009000900090000F
:102A6000900090008B00860081007C00770077004A
:102A700077007C007C008100860086008600810053
:102A800081007C007700770072007200720077008E
:102A9000770077007700770077007C007C007C006F
:102AA000810086008B009000940099009E00A30096
:102AB000A800A800AD00AD00AD00AD00AD00AD00B8
:102AC000AD00B200B700BC00BC00C100C100C10035
:102AD000BC00B700AD00A800A300990094009000CE
:102AE0008B00860081007C007C007C007C008100E3
:102AF00086008B009000900094009400900090005D
:102B00008B00860081007C007C00770077007700D6
:102B1000720072006D006D006800680068006D0052
:102B20006D0072007200720072007200720072001A
:102B300072006D006D00680063005E0054004F007D
:102B40004A004F0059007700A800E90038019701BA
:102B5000F5015302A302DE0201030B03F202C102DC
:102B600076021D02B5015101EE00990054002200C9
:102B7000090000000400180031004A005E007200E5
:102B80007C008100860086008600860086008B001F
:102B90008B009000940099009E009E009E009E0075
:102BA0009E009E009E009E009E009E009E00A30030
:102BB000A300A3009E009E009E009E00A300A30011
:102BC000A800AD00B200B700BC00BC00BC00BC0057
:102BD000BC00B700B700B700BC00BC00C100C1001A
:102BE000C600C600C600C600C600CB00D000D50097
:102BF000DA00E400EE00F300F800FD00020102013B
:102C000002010201020107010C01110116011B0161
:102C1000200120012401240129012E013801420153
:102C20004C01560160016A016F017401790179015B
:102C30007E0183018301880188018D018D018D0151
:102C400088018801880188018801880183017E014B
:102C500079016F0165015601470138012E012401F8
:102C600020011B0116010C010701FD00F300E40027
:102C7000DA00D000C600BC00B700B200AD00A3006F
:102C80009E00990094009400940094009400940095
:102C90009900940094008B0086007C0077007200FD
:102CA0007200720077007C0086008B00940099000F
:102CB0009E00A300A300A3009E009E00990099001F
:102CC0009900940094009900990099009E009E003C
:102CD000A300A300A3009E009E009900940094000E
:102CE0009000900090009000940094009400940054
:102CF000940094009400940099009E00A300A80002
:102D0000AD00AD00B200B200AD00A800A800A30065
:102D10009E009E009E00A300A300A300A3009E00AF
:102D20009E009900940090009000900094009900FB
:102D30009E00A300A300A800A300A3009E009E0085
:102D40009E009E009E009E00A300A300A300A3007F
:102D5000A300A300A300A300A300A800A800A8004C
:102D6000A800A800A3009E009E0099009900990069
:102D70009900990099009E009E00A300A800AD0054
:102D8000AD00B200B200B200B200B200AD00AD00C2
:102D9000AD00AD00B200B700BC00C600CB00D00053
:102DA000D500D500D000D000D000D000D000D00099
:102DB000D000CB00C600BC00B200A8009E0094006A
:102DC00090008B008B008B0090009000940094008A
:102DD000990099009900990099009900990099002B
:102DE00094009400900090009000900099009E0044
:102DF000AD00B700C100CB00D500DF00E400E90062
:102E0000E900EE00EE00F300F300F800F800F8002F
:102E1000FD00FD00020102010201020102010201A6
:102E200002010C011B0133015B018D01C80113027A
:102E30005D02A802E8021F0342035103470329036E
:102E4000ED02A3024902EB0192013D01FD00CB001E
:102E5000B200A800B200CB00E90007012001330155
:102E60003D0142013D013D01380133013301330190
:102E700033013301330133013301330133013301B2
:102E8000330138013D014201470147014701470134
:102E9000420142013D01380138013D013D0142013D
:102EA00047014C014C014C014C014C014C014C01BF
:102EB0004C0151015101560156015601560156016E
:102EC000560156015101560156015B016001650131
:102ED0006A016F016F016F016F016F016F016F0177
:102EE0006F0174017401790179017E017E017E0117
:102EF0007E01830188018D0192019701A101A60144
:102F0000AB01B001B501B501B901BE01C301C801F2
:102F1000D201D701D701DC01DC01D701D201CD01FB
:102F2000C801C301BE01B901B501AB01A6019C01F5
:102F300097018D0188018801830183017E01790158
:102F400074016A0160015101470138012E01240119
:102F500020011B01160116011601110111010C01BE
:102F60000C01070107010201FD00F800F300E90070
:102F7000E400DA00D500D000CB00CB00CB00CB00C2
:102F8000D000D000D500D000D000D000CB00C600CB
:102F9000C600C600C600CB00D000D500DA00DA00BB
:102FA000DA00DA00D500CB00C600C100BC00BC00CE
:102FB000C100C100CB00D000D500D500DA00DA0096
:102FC000D500D500D500D500D500D500DA00DA004F
:102FD000DA00DA00D500D000CB00CB00C600C60076
:102FE000C600C600CB00CB00D000D000D000CB0084
:102FF000CB00C600C600C600C600CB00CB00CB008D
:10300000CB00CB00C600C100BC00B700B700B700C2
:10301000B700BC00BC00C100C600C600C100C100B2
:10302000BC00B700B700B700BC00C100C600CB00B1
:10303000D000D000CB00CB00C100BC00B700B20074
:10304000AD00AD00B200B700BC00C100C600C600B4
:10305000CB00C600C600C600C100C100C600C60045
:10306000CB00D500DA00E400E900EE00F300F30045
:10307000F300EE00E900E400DF00DA00D500D5003F
:10308000D500D000D000D000D000D000CB00C600CA
:10309000C600C100BC00BC00B700B200AD00AD006E
:1030A000A800A800A300A300A300A300A300A300FE
:1030B0009E0099009400940090009000900094006D
:1030C000940099009E009E009E009E009E009E001F
:1030D000A300A300A800AD00AD00B200AD00A800A1
:1030E000A3009900900086007C00770077007C00A8
:1030F00086009400AD00CB00F80029016A01B00100
:10310000FA0140027B02AD02C602C602AD027B029A
:103110003602DC017E012401D00090005E004000F8
:1031200031003600400054006800770086009000AF
:10313000990099009E00A300A800AD00B200BC0059
:10314000C100C100C600C600C600C100BC00BC0072
:10315000B700B200B200AD00A800A800A300A30011
:10316000A800A800AD00B700C100C600D000D5007F
:10317000D500DA00DA00D500D500D000D000D000AC
:10318000D000D000D000D000D000D000D000D000BF
:10319000D500D500DA00DF00E400EE00F300F8000F
:1031A000FD000201070107010701070107010701EF
:1031B00007010C010C010C01110111011B0120017F
:1031C000290133013D0142014C01510156015601D3
:1031D0005B015B015B015B015B01600165016F01EC
:1031E000740179017E0183018801880188018301CE
:1031F00083017E0174016F016A01650160015B0159
:103200005B015601560151014C014201380129016F
:103210001B010C01FD00EE00E400DA00D500D00037
:10322000D000CB00CB00C600C100BC00B700B70087
:10323000B200B200B200B200B200B700B700BC00EA
:10324000BC00BC00BC00BC00B700B700B700B700B2
:10325000B700B700B700B700B200AD00AD00A800DE
:10326000A300A300A300A800A800AD00B200AD0019
:10327000AD00A800A30099009400940099009E005E
:10328000A300AD00B200B700B700B200AD00A800C7
:10329000A3009E009E00A300A800AD00B200B700EE
:1032A000B700B700B700B200B200AD00AD00B20089
:1032B000B200B200B200B700B200B200B200B20079
:1032C000AD00AD00AD00A800A800A3009E009900CD
:1032D0009400940090009000940099009E00A30038
:1032E000A800AD00AD00AD00A800A3009E009900AD
:1032F0009900940094009400990099009E009E000B
:103300009E009E009E009E009E009E009E009E00CD
:10331000A300A300A800A800AD00AD00AD00B2005E
:10332000B200B200B700BC00BC00C100C100C100C7
:10333000C100C100BC00BC00BC00BC00C100C10099
:10334000C600C600CB00CB00CB00CB00CB00CB002F
:10335000CB00C600C600C600C100BC00B700B2006A
:10336000AD00A300990090008B00860081007C00D6
:103370007C0081008100860086008B00860086002C
:1033800081007C007700720072006D006D00720099
:103390007200720077007700770077007C007C0075
:1033A0007C007C007C007C007C007C007C00810038
:1033B000860086008B008B00860081007700680005
:1033C0005E0054004F00540068008600B200EE001A
:1033D00033018301D7012C027B02BC02F2020B03F2
:1033E0000B03ED02B2025802F0017E010C01A800AD
:1033F0005E0027000E000E001D00360054006D0018
:1034000081008B0090009000900090009400990043
:103410009E00A300A300A3009E00990099009400C1
:1034200094009400990099009E00990099009400DE
:103430008B008600860086008600900094009E0027
:10344000A300AD00B200B200B700B700BC00BC00E2
:10345000C100C100C100C600C100C100C100C1005F
:10346000C100C100C100C600CB00CB00D000D50018
:10347000D500D500D500DA00DA00DA00DF00DF0081
:10348000E400E900EE00F300F800FD0002010C0189
:1034900016011B01290133013D0142014C014C0180
:1034A0005101510151015101510156015601600173
:1034B00065016F01740179017E01830183017E0141
:1034C0007E0179017901790179017E018301880109
:1034D0008D019201970197019701970192018D014A
:1034E00083017E01790174016A01650160015B015C
:1034F0005B0156015601510151014C014701420146
:103500003D0138012E012901290124012401240152
:103510002401240124012401200120011B011B019D
:103520001B011B011B011B011B01160116011101CF
:103530000C010C0107010701070107010C010C0137
:1035400011011101160116011101110111010C01E6
:1035500011011101160116011B011B01200120019F
:1035600020011B011B011B0120012001240124015A
:10357000240129012901290129012901240124010A
:1035800024012401200120011B0116011601110153
:10359000110111010C010C010C010C0107010701C3
:1035A0000201020102010201020102010201FD0009
:1035B000F800F300EE00E400DF00DF00DF00DF00D2
:1035C000DF00E400E900E900E900E900E900E400C7
:1035D000E400E400DF00DF00DA00DA00DA00D50002
:1035E000D500D000D000CB00CB00CB00C600C60079
:1035F000C600C600C600C600C600C600CB00D0008C
:10360000D000D500DA00DA00DF00DF00DA00DA00EF
:10361000D500D000CB00C600C100BC00BC00BC007F
:10362000C100C600CB00D000D500DA00DF00E40006
:10363000E900EE00EE00F300F300F300EE00E90015
:10364000DF00D500C600B700AD009E0099009000D5
:1036500090008B00900090009400940094009400DF
:1036600094009400940094009400940094009000BE
:10367000900090008B008B008600860086008600FC
:10368000860086008B008B008B008B008B008B00EC
:103690008B008B0086008600810081007C007C000E
:1036A000770072006D0068006300630068007700B7
:1036B0009000BC00F30038018D01EB014902A30228
:1036C000F2022E03510351033303F7029E0231022B
:1036D000BE014C01DF008B004F002C001D002700B5
:1036E0003B0054007200860094009E00A300A800D6
:1036F000A800A800AD00B200B700B700BC00BC0035
:10370000B700B200AD00AD00AD00AD00AD00B2003D
:10371000B700BC00BC00BC00BC00BC00BC00B700D3
:10372000B700B200B200B700B700B700BC00C100DC
:10373000C100C600CB00CB00D000D000D500D50022
:10374000D000D000CB00CB00CB00CB00D000D50008
:10375000DF00E900EE00F800FD00FD00FD00FD00C7
:10376000FD00FD00FD00020107010C011101160121
:103770001B012001240129013301380142014C01C0
:103780005601600165016A016A016A016A016A0104
:103790006A016A016F0174017E0183018801880159
:1037A0008D018801880188018301830183018801DB
:1037B000880188018D01880183017E0174016A01FD
:1037C0005B015101470142013801330133012E01F0
:1037D00029012401200116010C010201FD00F30062
:1037E000EE00E900E400DF00DA00D500D000CB00F5
:1037F000C600C600C600C600C600CB00CB00CB008A
:10380000CB00C600C600C100BC00BC00B700B700BA
:10381000B700B700B200B200B200AD00AD00A80022
:10382000A800A800A800A800A800A300A300A30067
:10383000A300A300A300A300A800AD00B200B7003E
:10384000BC00C100C100C600C600C600C600C6005C
:10385000C600C100C100BC00B700B200B200AD009C
:10386000A800A800A800A800AD00B200B200B700F0
:10387000BC00C100C100C100C100C100BC00B70054
:10388000B700B200B200B200B200B200B700B70099
:10389000B700B200B200AD00A800A300A3009E00D4
:1038A0009E009E00A300A800AD00B200B200B700C9
:1038B000B700B700B200AD00AD00A800A3009E00A5
:1038C0009E009E009E00A300A300A800A800A800E0
:1038D000A800AD00AD00AD00AD00B200B200B20076
:1038E000B700B700B700B700B700B200B200B2002F
:1038F000B200B200B200B200B700B700B700B70024
:10390000B700B200B200B200B200B200B200B20022
:10391000B700B700BC00BC00C100C100C100C100BD
:10392000C100C100C600C600CB00D000D500DA003F
:10393000DF00E400E900E900E900E900E900E9004E
:10394000E400E400DF00DA00DA00D500D000CB00AC
:10395000C600BC00B700B200AD00AD00AD00AD00C8
:10396000AD00AD00AD00AD00A800A800A800A30008
:10397000A300A3009E009E009E009E009E009E004D
:103980009E0099009E009E009E00A300A300A3003D
:10399000A3009E009900940090008B008600860092
:1039A00086008B0090009400940090008B008100B2
:1039B00077006D0072007C009000B700E9002901DB
:1039C0007401C8011D027102BC02FC0229033D03FF
:1039D00033030B03CB027102090297012901C600D0
:1039E0007C004A0031002C003B00540072008B0028
:1039F0009900A300A800A300A300A300A300A800AF
:103A0000B200B700C100C100C100BC00B700B200E5
:103A1000AD00A800AD00AD00B700BC00C100C600FD
:103A2000CB00CB00CB00CB00CB00CB00CB00CB003E
:103A3000CB00CB00CB00D000D000D000D500D5000B
:103A4000DA00DA00DF00DF00DF00DA00DA00DA0097
:103A5000DF00DF00E900EE00F800FD0002010701D1
:103A60000701070102010201FD00020107010C012B
:103A700016011B012401290129012E012901290117
:103A800029012E013301380142014C0151015B0132
:103A9000600165016A016A016F016F0174017901BA
:103AA0007E01830188018D0197019C01A101A6017E
:103AB000AB01AB01A601A1019C0192018D01830123
:103AC0007E01790174016F016A01600156014701AD
:103AD000380129012001160111010C010C010C0112
:103AE0000C0107010201FD00F300E400DA00D00040
:103AF000C600C600C100C100C100C100C100C100B4
:103B0000BC00B700B700B200AD00A800A3009E0043
:103B10009E009900940094009400990099009E00E2
:103B2000A300A800AD00AD00AD00AD00AD00A80041
:103B3000A800A800A800A800AD00AD00AD00AD0031
:103B4000A800A800A800A300A300A800A800A8003F
:103B5000AD00AD00AD00AD00AD00AD00AD00AD00FD
:103B6000AD00AD00B200B200B700B700B700BC00B6
:103B7000B700B700B700B200B200B200B200B200A6
:103B8000B700B700BC00BC00BC00BC00B700B70069
:103B9000B200AD00A800A800A800A800AD00B200C7
:103BA000B700BC00C100C100BC00B700B200AD004E
:103BB000A300A3009E00A300A800AD00BC00C600A7
:103BC000D500DF00E900F300FD0002010701070155
:103BD0000C010C010C01110111011101160116015A
:103BE0001601110111011101110111011101110140
:103BF000110116011B011B012001200120012001E0
:103C00001B011B011601110111010C010C010C011A
:103C1000110116011B01200129012E01330133017D
:103C20003301330133012E012E012E012E012E010D
:103C3000330138013D014201470147014C014C016C
:103C40004C014C014C014C014C0147014701420120
:103C50003D0138012E0124011B0111010701FD0066
:103C6000F800F800F300F300F800F800FD00FD0094
:103C7000FD00FD00FD00F800F800F800F300EE0084
:103C8000E900E400DF00DA00D500D500D000D00064
:103C9000CB00CB00CB00D000D000D000D000D500AE
:103CA000D500D500D500D500D500D500D500D5006C
:103CB000D000CB00C100BC00B200AD00B200BC001F
:103CC000D500F8002E016F01BE0113026C02C6027E
:103CD00010034C036A036E0351031A03C6025D020C
:103CE000EB0179011601C10081005E004F00540014
:103CF00068007C009400A800B200BC00BC00BC00BE
:103D0000BC00BC00C100C600CB00D000D000D00079
:103D1000CB00C600C100BC00BC00BC00C100C60096
:103D2000CB00D000D000D000CB00C600C100C10045
:103D3000C100C100C600D000D500DF00E400E400EF
:103D4000E400E400E400DF00DF00DF00DF00DF006C
:103D5000E400E400E900EE00EE00EE00EE00E90011
:103D6000E900E400E400E400E400E400E900EE001F
:103D7000EE00EE00F300F300F300F800FD00020196
:103D80000C0116012001290133013D0142014C01C2
:103D9000510156015B01600165016A016F016F010C
:103DA0007401740174017401790179017E01830148
:103DB00088018D0192019201970197019201920170
:103DC0008D0188018301790174016F016501600132
:103DD000560147013D01330124011B0111010C0172
:103DE0000201FD00F800F300EE00E400DA00D50067
:103DF000CB00C600C100BC00B700B700B200B200E3
:103E0000AD00A3009E00940090008B008600860009
:103E100086008B008B009000900090009000900036
:103E200090008B008B00900090009400940099000B
:103E300099009900990094009400940099009900C9
:103E400099009900990099009900940094009400B9
:103E5000940099009E00A300A800AD00B200B2003B
:103E6000B200B200AD00A800A800A300A300A30008
:103E7000A800A800AD00AD00B200B200B200AD00D5
:103E8000AD00A800A800A3009E009E009E009E001A
:103E90009E009E009E009E009E009E009E009E0032
:103EA000990099009900990099009900990099004A
:103EB0009900990099009900940094009400900052
:103EC0009000900094009400990099009E009E003C
:103ED0009E009E00990094009400900090008B003A
:103EE0008B0090009000900090008B008B0086006B
:103EF0008600860086008B008B0094009900990054
:103F00009E0099009900940090008B008600860026
:103F100086008B008B008B00900090008B008B0044
:103F20008B008B008B009000940099009E00A800ED
:103F3000A800AD00AD00AD00A800A800A300A3003C
:103F4000A300A300A300A300A800AD00B200B70027
:103F5000BC00C600CB00D000D500D500D500D500F0
:103F6000D000D000D000D000D500DA00DA00DF00A9
:103F7000DF00DF00DA00D000C600BC00B200A800FD
:103F8000A3009E0099009E009E00A300A300A30032
:103F9000A800A300A300A300A3009E009E009E0013
:103FA0009E00990099009400940090009000900069
:103FB000900090009400990099009E009E00990046
:103FC000940090008B00860081007C007C007C00C7
:103FD0007C007C007C007C0077007200720077001F
:103FE00086009E00C600FD003D018D01E101360204
:103FF0008A02DA0215034203510347031F03DA0260
:1040000080021302A6013801D5008B005900400040
:1040100040004F00680086009E00B200BC00C10056
:10402000BC00B700B200B200B200B200B700B700E7
:10403000B700B700B200AD00AD00AD00B200BC00EB
:10404000C600D000D500D500D500D000CB00C600FA
:10405000C100C100C600CB00D500DF00E900EE00C2
:10406000EE00EE00E900E900E400DF00DF00DF0021
:10407000DF00DF00E400E400E400E400E900E90020
:10408000EE00EE00F300F800F800F800FD00FD007F
:10409000FD00FD00FD00020107010C0111011601E8
:1040A0001B01200124012401290129012E013801CD
:1040B0003D014701560160016F01790183018801CB
:1040C0008D018D018D018D018D01920197019C0162
:1040D000A101AB01B001B501B901B901B901B50147
:1040E000B001B001B001AB01AB01A601A1019C017F
:1040F0009201880179016F0165015B0151014C0159
:1041000047013D0138012E0124011B011101070166
:104110000201FD00F800F800F300F300EE00E900F2
:10412000DF00DA00D500D500D000D000D500D500E2
:10413000D500D500D500D000D000D000D000D000F0
:10414000D000D000D000D500D500D500D500D500D6
:10415000D500D500D500D500D000D000CB00C100DF
:10416000BC00BC00B700BC00C100C600D000DA0033
:10417000E400E900E900E900E400DF00DA00D5002E
:10418000D000D500DA00DF00E900EE00F300F8000F
:10419000F800F300EE00E900DF00D500D000CB000E
:1041A000C600C600C600C600C600CB00D000D500C1
:1041B000D500DA00DA00DF00DF00DA00DA00D5002F
:1041C000D000D000CB00CB00C600C600C600C600A1
:1041D000C600C600C600C600C600C600C100C100B9
:1041E000C100C100C100C100C100C100C100C100C7
:1041F000C100C100C100C100BC00BC00BC00BC00CB
:10420000BC00BC00C100C100C100C100BC00BC00BA
:10421000C100C100C100C100C100C600C600C60087
:10422000C600C600CB00CB00CB00CB00CB00CB0040
:10423000C600C600C600C600C600C600C600C10053
:10424000C100C100BC00B700B700B200AD00AD00B6
:10425000AD00B200B200B700BC00C100C600CB0088
:10426000CB00D000D500D500DA00DA00DA00DA00A1
:10427000DA00DA00DA00DA00DA00D500D500D5007D
:10428000D500D500DA00DF00E400E900EE00F3001D
:10429000F800F800F800F300F300EE00E900E90090
:1042A000E400DF00DF00DA00D500D500D000CB004D
:1042B000C600C600C100C100BC00BC00B700B7000A
:1042C000B200B200B200B200B200B200B200B2005E
:1042D000AD00AD00A800A800A300A300A300A300A8
:1042E000A300A800A800A800A800A800A800A30098
:1042F000A3009E009E009E00A300A800A800A800A6
:10430000A800A800A300990094008B0086008B00F1
:104310009400A800CB00F80033017901CD012202FE
:104320007602CB02100347036A036E0356031F0392
:10433000D0026C02040297012E01DA0099006D0090
:1043400059005400630077008B009E00B200BC004F
:10435000C100C100C100C100BC00BC00B700B70073
:10436000B700B700B200B200AD00AD00AD00AD00C7
:10437000AD00AD00B200B200B700BC00BC00C1008F
:10438000C600CB00D000D000D000D000D000CB00C1
:10439000CB00C600C600C600C600CB00D000D500CA
:1043A000DA00DF00E400E900EE00F300F800F800B6
:1043B000F800F300F300F300EE00EE00F300F3006A
:1043C000F800FD000201070107010C010C010C01BE
:1043D0000C011101110116011B01240129013301F6
:1043E0003801420147014C0151015601600165014C
:1043F0006A01740179017E0188018D0192019201A7
:1044000097019C01A101A601AB01B001B001B0016F
:10441000B001B001B001AB01AB01A1019C0192015F
:10442000830179016A015B01510147013D013801B6
:104430002E01290124011B0111010C010201FD00C3
:10444000F800F300EE00E900E900E400DF00DA0024
:10445000DA00D500D000D000CB00CB00CB00C600E6
:10446000C600C100C100BC00BC00B700B700B2006C
:10447000B200AD00A800A800A3009E009E009E0010
:104480009E00A300A800B200B700C100C600CB0088
:10449000D000D000D000D000CB00C600C100BC00CE
:1044A000B700B200B200B200B200B700B700BC0063
:1044B000BC00BC00BC00BC00BC00BC00B700B70026
:1044C000B700B700BC00C100C100C600CB00CB00E4
:1044D000CB00CB00CB00C600C100C100BC00BC00BB
:1044E000BC00C100C600CB00D000D500DA00DF0060
:1044F000DF00E400E400E400DF00DF00DA00DA00BF
:10450000D500D000CB00CB00C600C100BC00BC0071
:10451000BC00BC00C100C100C600CB00CB00D00075
:10452000D000D000D000CB00CB00C600C600C60033
:10453000C600C600C600CB00CB00D000D000CB0028
:10454000CB00C600C600C100C100BC00BC00BC005E
:10455000BC00BC00BC00BC00BC00BC00BC00BC007B
:10456000BC00BC00C100C100C100C100C100BC0052
:10457000BC00B700B700B200AD00AD00AD00AD00AB
:10458000AD00AD00B200B700B700B700BC00BC0082
:10459000BC00BC00BC00BC00B700B700B700B7004F
:1045A000B700B700B200B200AD00A800A800A30099
:1045B000A300A800AD00B200B700C100C600D00043
:1045C000D500D500D500D500D500D000CB00C60061
:1045D000C600C100C100C600C600CB00CB00D000A1
:1045E000DA00DF00E400E900EE00F300F300F3007E
:1045F000F300EE00E900E400DA00D000C600C100DC
:10460000BC00B200B200AD00A800A800A300A30047
:10461000A3009E009E009E009E00990099009900B4
:10462000990099009E009E009E00A300A300A30095
:10463000A800A300A300A3009E009E00990099007B
:1046400094009400940094009000900090009400D6
:1046500094009400990094009400900086007C00DF
:1046600072006D006800720081009E00CB000201A4
:1046700047019201E6013B028F02DA021503420371
:10468000510347031A03D502760209029C012E0149
:10469000D500900063004A004A0059006D00810077
:1046A00094009E00A300A300A300A300A300A30006
:1046B000AD00B200B700BC00C100C100C100BC0029
:1046C000B700B700B200B200B200B700BC00BC0037
:1046D000C100C600C600C600C600C600C600C600AF
:1046E000C600C600C600CB00CB00D500DA00DF0054
:1046F000E400E400E900E900E900E900E400E40086
:10470000E400E400E900E900E900E900E900E9006B
:10471000E900E900E900EE00F300FD0007011101E6
:104720001B01240129012E012E012E012E01290138
:104730002901290129012E0133013D0147014C01C5
:1047400056015B0165016A016F01740179017E0107
:10475000830188018D01920197019C019C01A101B7
:10476000A101A101A101A601A601A601A601A60120
:10477000A1019C01970192018801830179016F01D8
:104780006A015B015101470138012901200116012D
:104790000C010201FD00F800F800F300F300EE0048
:1047A000E900E400DF00DA00D500D000CB00CB0048
:1047B000C600C600C600C600C100C100BC00BC00E7
:1047C000BC00BC00BC00BC00BC00BC00B700B70013
:1047D000B200B200AD00A800A800A800AD00B20071
:1047E000B700BC00C100C600CB00CB00D000D00099
:1047F000D000D000CB00C600C100BC00B700B7009D
:10480000B200B200B200B200B200B700B700B70009
:10481000BC00BC00BC00C100C100C100C600C60095
:10482000C600C600C600C600C600C600C600CB0053
:10483000CB00D000D500D500DA00DA00D500D500D5
:10484000D000D000CB00C600C100C100C100BC0038
:10485000BC00BC00BC00BC00BC00BC00BC00BC0078
:10486000BC00BC00BC00C100C100C600C600CB003B
:10487000CB00CB00C600C100BC00B700B200B20044
:10488000B200B200B700BC00C100C600CB00CB0034
:10489000C600C100BC00B700B700B200B200B7004C
:1048A000B700BC00C100C100C100BC00BC00B70023
:1048B000B200B200B200B200B700BC00BC00C10040
:1048C000C100C100BC00B700B200AD00AD00AD003A
:1048D000B200B700BC00C100C100C600C600C100E4
:1048E000C100BC00B700B700B200B200B200B20015
:1048F000B200B700B700B700B700BC00B700B70000
:10490000B700B700B700BC00C100C600CB00D5009F
:10491000DA00DF00DF00DF00DF00DA00D000CB00CC
:10492000CB00CB00D000D500E400EE00FD00070175
:104930000C0111010C010701FD00F300EE00E40081
:10494000DF00DF00DF00DF00DF00DF00DF00DF006F
:10495000DA00D500D000C600BC00B700B200A80045
:10496000A800A300A300A300A800A800A800A80016
:10497000A800A800A800AD00AD00B200B700BC00C0
:10498000BC00BC00BC00B700B200AD00A800A8008D
:10499000A300A3009E009E009E009900990099002C
:1049A00099009E00A300AD00B200B200B200AD00BD
:1049B000A30094008B0086008B009900B700E400F0
:1049C00020016001B001FF0149029402D5020603F3
:1049D0001F0324030B03DA028F023102C8015B01BB
:1049E000F800A300680045003B004500590077002F
:1049F0009000A800B700BC00C100C100C600C600FE
:104A0000CB00D000D000D500DA00DA00DA00D50003
:104A1000D500DA00DA00DF00E400E400E900E90094
:104A2000E400E400DF00DA00DA00DF00E400E40084
:104A3000E900EE00EE00EE00EE00EE00E900E90015
:104A4000E900E900E900E900EE00EE00F300F30000
:104A5000F800FD00020107010C0111011601160109
:104A60001601110111010C011101110116011B01A7
:104A700020012401290129012E012E0133013301D6
:104A800038013D0147014C01510156015B016001B4
:104A900065016A016A016F0179017E018801920155
:104AA0009C01A101AB01B001B501B501B901B9018A
:104AB000B901B901B501B501B001AB01AB01A60166
:104AC000A101A101A1019C019C01970192018D010D
:104AD000830179016F0165015B01510147013D01CE
:104AE00033012901200116010C01FD00F300E9004A
:104AF000DF00DA00DA00DA00DA00DA00DA00DA00E1
:104B0000DA00D500D500D000D000D000D000D00011
:104B1000CB00CB00CB00C600C600C100C100C10065
:104B2000C100C100C600CB00D000D000D000D00032
:104B3000CB00CB00C600C600C600C100C600C60040
:104B4000C600C600C600C600C600CB00CB00CB0026
:104B5000D000D000D500D500D500D500D500D500B7
:104B6000D500D500D500DA00DA00DF00DF00DF0075
:104B7000DF00DA00D500D000CB00C600C100C600BF
:104B8000C600CB00CB00D000D000D000D000D000B9
:104B9000D000D000D000D000D000D000D000CB009A
:104BA000CB00C600C100C100BC00BC00C100C100F8
:104BB000C100C600C600C600C600C100BC00BC00E3
:104BC000B700B200B200B200B200B200B200B20050
:104BD000B200B200B700B700B700BC00C100C60009
:104BE000C600CB00CB00CB00CB00C600C100BC0090
:104BF000B700B700B200AD00A800A800A800A80048
:104C0000AD00AD00B200B700B700BC00BC00B700FB
:104C1000B700B700B200B200B200B200B700B700F0
:104C2000BC00BC00BC00BC00B700B200AD00AD00D1
:104C3000A800A800A800AD00AD00B200B700B70002
:104C4000BC00BC00BC00B700B700B700B700B7009D
:104C5000B700BC00BC00C100C100C100C100C10060
:104C6000C100C600CB00D000D000D500DA00DF00C4
:104C7000DF00DF00DA00DA00D500D500D500D5006E
:104C8000DA00DF00DF00E400E900E900E900E90004
:104C9000E900E900E400E400E900E900E900E900D6
:104CA000EE00E900E900E400E400DF00D500D000F8
:104CB000CB00C600C600C100C100BC00BC00BC00E7
:104CC000BC00BC00BC00BC00B700B700B200B20022
:104CD000B200B200B700B700BC00BC00BC00BC0012
:104CE000B700B700B200B200B200B200B200B2002A
:104CF000B700B200B200AD00AD00A800A800A80047
:104D0000A800A800A800A800A3009900940094009F
:104D10009E00B200D000020142018D01E101360285
:104D20008A02D5021003380347033D031503D50259
:104D30007B021802AB013D01DF0094005E004000E1
:104D40003B004A00630081009E00B200C100C60023
:104D5000C100BC00B700B200AD00AD00A800A800C3
:104D6000A800A800A800AD00AD00B700BC00C600B8
:104D7000CB00D000D500D500D000D000CB00CB00B8
:104D8000CB00CB00CB00D000D000D000D000D000B2
:104D9000D000D000D000D000D000D500D500D50084
:104DA000DA00DA00DA00DA00DA00DF00DF00E4001F
:104DB000E900E900EE00EE00EE00EE00F300F30083
:104DC000F300F800FD00020107010C0116011B01B0
:104DD00020012401290129012E013301380142015A
:104DE00047014C0156015B01600165016A016F01D9
:104DF000740179017E01830188018D018D01920189
:104E0000970197019C019C01A101A101A601A601A6
:104E1000AB01B001B001B501B501B501B001A6010A
:104E2000A101920188017E016F0165015B015101C1
:104E30004C01420138012E0124012001160111010B
:104E40000C010C0107010201FD00F800F300EE0067
:104E5000E900E400DF00DF00DF00DF00DF00DF004B
:104E6000DA00DA00D500D000D000CB00CB00CB00B8
:104E7000CB00CB00CB00CB00CB00CB00CB00C600DF
:104E8000C600C600C600C6000000000800020100FF
:104E90000003040700000000000000000000000004
:104EA000250028002B0000000000240027002A0015
:104EB00004040404040404040202020202020303C0
:104EC00003030303010204081020408001020408C8
:104ED000102001020408102011241FBECFEFD8E0DB
:104EE000DEBFCDBF21E0A0E0B1E001C01D92A9303E
:104EF000B207E1F70E942E280C94E5280C940000DC
:104F0000EDECFEE42491E9EBFEE48491882399F032
:104F100090E0880F991FFC01EA55F14BA591B491DF
:104F2000FC01E456F14B859194918FB7F894EC9184
:104F3000E22BEC938FBF0895E1E9FEE42491EDECC0
:104F4000FEE49491E9EBFEE4E491EE23C9F0222320
:104F500039F0233001F1A8F4213019F1223029F180
:104F6000F0E0EE0FFF1FE456F14BA591B4912FB77F
:104F7000F894EC91811126C090959E239C932FBFAD
:104F800008952730A9F02830C9F0243049F720913E
:104F900080002F7D03C0209180002F772093800018
:104FA000DFCF24B52F7724BDDBCF24B52F7DFBCFFA
:104FB0002091B0002F772093B000D2CF2091B00085
:104FC0002F7DF9CF9E2BDACF1F920F920FB60F9243
:104FD00011242F933F938F939F93AF93BF9380910F
:104FE000050190910601A0910701B091080130914F
:104FF000040123E0230F2D3758F50196A11DB11DA3
:10500000209304018093050190930601A09307016A
:10501000B09308018091000190910101A0910201DB
:10502000B09103010196A11DB11D809300019093E1
:105030000101A0930201B0930301BF91AF919F9131
:105040008F913F912F910F900FBE0F901F90189549
:1050500026E8230F0296A11DB11DD2CF789484B506
:10506000826084BD84B5816084BD85B5826085BD64
:1050700085B5816085BD80916E00816080936E00F2
:1050800010928100809181008260809381008091E4
:105090008100816080938100809180008160809395
:1050A00080008091B10084608093B1008091B00055
:1050B00081608093B00080917A00846080937A0050
:1050C00080917A00826080937A0080917A0081607A
:1050D00080937A0080917A00806880937A001092A1
:1050E000C1000E94802782E88093800081E1809344
:1050F000810081E9A82E8EE4B82E9BE3E92E9FE182
:10510000F92E20E0C22E20E0D22E08E610E0F801B1
:10511000C191D1918F010E948027209781F480E076
:105120000E949C27C7010197F1F780E00C37180710
:1051300071F7C114D10449F30E940000E6CFCF3FBC
:10514000D10511F481E0ECCFF5018491833019F1A0
:1051500040F48130B1F08230C9F0C038D10594F705
:10516000DECF873011F1883041F18430B1F7809182
:105170008000806280938000D0938B00C0938A006F
:10518000D1CF84B5806884BDC7BDCCCF84B58062E3
:1051900084BDC8BDC7CF80918000806880938000A7
:1051A000D0938900C0938800BDCF8091B000806803
:1051B0008093B000C093B300B5CF8091B0008062FF
:0E51C0008093B000C093B400ADCFF894FFCF41
:00000001FF
