:100000000C9453000C945E020C9437020C947B0009
:100010000C947B000C947B000C947B000C947B0074
:100020000C947B000C947B000C947B000C947B0064
:100030000C947B000C947B000C947B000C947B0054
:100040000C94ED010C947B000C94BB010C94950175
:100050000C947B000C947B000C947B000C947B0034
:100060000C947B000C947B0000000000250028000D
:100070002B0000000000240027002A0004040404D0
:100080000404040402020202020203030303030342
:10009000010204081020408001020408102001021F
:1000A00004081020E10311241FBECFEFD8E0DEBF0B
:1000B000CDBF11E0A0E0B1E0E0E7F8E002C00590BC
:1000C0000D92AA31B107D9F721E0AAE1B1E001C050
:1000D0001D92A63CB207E1F710E0C3E5D0E004C0F2
:1000E0002197FE010E943004C235D107C9F70E9452
:1000F00085020C9436040C9400008091C00190910C
:10010000C10101969093C1018093C00108950895A3
:10011000AF92BF92CF92DF92EF92FF920F931F9315
:10012000CF93DF936C017B018B01040F151FEB0153
:100130005E01AE18BF08C017D10759F06991D6010A
:10014000ED91FC910190F081E02DC6010995892B7C
:1001500079F7C501DF91CF911F910F91FF90EF903B
:10016000DF90CF90BF90AF900895FC01538D448DE8
:10017000252F30E0842F90E0821B930B541710F052
:10018000CF96089501970895FC01918D828D98175F
:1001900061F0A28DAE0FBF2FB11D5D968C91928D37
:1001A0009F5F9F73928F90E008958FEF9FEF089568
:1001B000FC01918D828D981731F0828DE80FF11D31
:1001C000858D90E008958FEF9FEF0895FC01918D4C
:1001D000228D892F90E0805C9F4F821B91098F7345
:1001E0009927089583E291E00E94E60021E0892B9F
:1001F00009F420E0822F089580E090E0892B29F017
:100200000E94F20081110C9400000895FC01A48D5D
:10021000A80FB92FB11DA35ABF4F2C91848D90E028
:1002200001968F739927848FA689B7892C93A0890B
:10023000B1898C91837080648C93938D848D981395
:1002400006C00288F389E02D80818F7D8083089528
:10025000EF92FF920F931F93CF93DF93EC0181E016
:10026000888F9B8D8C8D98131AC0E889F9898081BD
:1002700085FF15C09FB7F894EE89FF896083E889F0
:10028000F98980818370806480839FBF81E090E0E2
:10029000DF91CF911F910F91FF90EF900895F62E6F
:1002A0000B8D10E00F5F1F4F0F731127E02E8C8D09
:1002B0008E110CC00FB607FCFACFE889F98980814E
:1002C00085FFF5CFCE010E940601F1CFEB8DEC0F3B
:1002D000FD2FF11DE35AFF4FF0829FB7F8940B8F6B
:1002E000EA89FB8980818062CFCFCF93DF93EC01D5
:1002F000888D8823B9F0AA89BB89E889F9898C910E
:1003000085FD03C0808186FD0DC00FB607FCF7CFC9
:100310008C9185FFF2CF808185FFEDCFCE010E94C9
:100320000601E9CFDF91CF9108951F920F920FB68A
:100330000F9211242F933F934F935F936F937F936B
:100340008F939F93AF93BF93EF93FF9383E291E0DB
:100350000E940601FF91EF91BF91AF919F918F9104
:100360007F916F915F914F913F912F910F900FBEB1
:100370000F901F9018951F920F920FB60F92112495
:100380002F938F939F93EF93FF93E0913301F0911D
:1003900034018081E0913901F0913A0182FD1BC066
:1003A000908180913C018F5F8F7320913D01821776
:1003B00041F0E0913C01F0E0ED5DFE4F958F8093C0
:1003C0003C01FF91EF919F918F912F910F900FBE64
:1003D0000F901F9018958081F4CF1F920F920FB647
:1003E0000F9211242F933F938F939F93AF93BF93BB
:1003F00080911F0190912001A0912101B0912201D3
:1004000030911E0123E0230F2D3758F50196A11DD1
:10041000B11D20931E0180931F0190932001A09392
:100420002101B093220180911A0190911B01A091AA
:100430001C01B0911D010196A11DB11D80931A01EF
:1004400090931B01A0931C01B0931D01BF91AF912C
:100450009F918F913F912F910F900FBE0F901F9002
:10046000189526E8230F0296A11DB11DD2CF1F9229
:100470000F920FB60F9211242F933F934F935F93D8
:100480006F937F938F939F93AF93BF93EF93FF935C
:10049000E0910201F09103010995FF91EF91BF9165
:1004A000AF919F918F917F916F915F914F913F910C
:1004B0002F910F900FBE0F901F9018951F920F92C3
:1004C0000FB60F9211242F933F934F935F936F9327
:1004D0007F938F939F93AF93BF93EF93FF93E0919D
:1004E0000001F09101010995FF91EF91BF91AF914A
:1004F0009F918F917F916F915F914F913F912F913C
:100500000F900FBE0F901F901895CF93DF93CDB72C
:10051000DEB7A1970FB6F894DEBF0FBECDBF7894BB
:1005200084B5826084BD84B5816084BD85B58260F8
:1005300085BD85B5816085BD80916E0081608093A9
:100540006E00109281008091810082608093810012
:100550008091810081608093810080918000816022
:10056000809380008091B10084608093B10080917D
:10057000B00081608093B00080917A0084608093A5
:100580007A0080917A00826080937A0080917A006C
:10059000816080937A0080917A00806880937A00ED
:1005A0001092C100E2E9F0E02491EEE7F0E08491DE
:1005B0008823C9F090E0880F991FFC01EE58FF4F87
:1005C00045915491FC01E859FF4FA591B4919FB713
:1005D000F894FA013081822F809583238083EC91F7
:1005E000E22BEC939FBF8DE790E090930101809305
:1005F0000001809169008C7F826080936900E89A95
:10060000E0913301F091340182E08083E0912F0189
:10061000F09130011082E0913101F091320180E1DE
:10062000808310923B01E0913701F091380186E020
:100630008083E0913501F091360180818061808373
:10064000E0913501F0913601808188608083E091EE
:100650003501F0913601808180688083E091350119
:10066000F091360180818F7D80838AE0C82ED12C65
:10067000E12CF12C90E0292E90E0392E8FB7F894E0
:1006800040901F0150902001609021017090220144
:100690008FBF8091C2019091C301A091C401B0911C
:1006A000C501A3019201281B390B4A0B5B0BDA0130
:1006B000C901883E9340A105B10508F460C0E898DF
:1006C00047E850E050930101409300018090C00141
:1006D0009090C101092C000CAA08BB08B7FE5BC0B2
:1006E0006DE283E291E00E94280122273327A901CD
:1006F000281939094A095B0919A28E010F5D1F4F9C
:10070000CA01B901A70196010E940E04605DF801BB
:1007100062938F01211531054105510589F70115B6
:10072000110561F001900020E9F73197AF01401BFE
:10073000510BB80183E291E00E94880042E050E052
:1007400066E171E083E291E00E9488001092C101AD
:100750001092C0014092C2015092C3016092C40144
:100760007092C5012DE730E0309301012093000124
:10077000809169008C7F826080936900E89A2114DF
:10078000310409F47BCF0E94F200882309F476CF6C
:100790000E94000073CFA501940119A28E010F5D84
:1007A0001F4FCA01B901A70196010E940E04605DA6
:1007B000F80162938F01211531054105510589F733
:1007C000AECFE3E2F1E01382128288EE93E0A0E084
:1007D000B0E084839583A683B78388E091E091831A
:1007E000808385EC90E09587848784EC90E0978700
:1007F000868780EC90E0918B808B81EC90E0938BEE
:10080000828B82EC90E0958B848B86EC90E0978BCA
:10081000868B118E128E138E148E0895A1E21A2EDD
:10082000AA1BBB1BFD010DC0AA1FBB1FEE1FFF1F94
:10083000A217B307E407F50720F0A21BB30BE40BE4
:10084000F50B661F771F881F991F1A9469F760952B
:100850007095809590959B01AC01BD01CF010895E5
:10086000EE0FFF1F0590F491E02D0994F894FFCF4F
:10087000870087000000000028018800B50075018E
:0A088000E600C400D8000D0A0000D5
:00000001FF
