:100000000C9452000C946F000C946F000C946F00D1
:100010000C946F000C946F000C946F000C946F00A4
:100020000C946F000C946F000C946F000C946F0094
:100030000C946F000C946F000C946F000C946F0084
:100040000C9471000C946F000C946F000C946F0072
:100050000C946F000C946F000C946F000C946F0064
:100060000C946F000C946F00000000002500280025
:100070002B0000000000240027002A0004040404D0
:100080000404040402020202020203030303030342
:10009000010204081020408001020408102001021F
:1000A0000408102011241FBECFEFD8E0DEBFCDBF63
:1000B00011E0A0E0B1E0EAE7F2E002C005900D92A5
:1000C000A232B107D9F721E0A2E2B1E001C01D924E
:1000D000AB32B207E1F70E94BB000C943B010C94D9
:1000E00000001F920F920FB60F9211242F933F938F
:1000F0008F939F93AF93BF93809127019091280195
:10010000A0912901B0912A013091260123E0230F0B
:100110002D3758F50196A11DB11D2093260180931E
:10012000270190932801A0932901B0932A0180917F
:10013000220190912301A0912401B0912501019603
:10014000A11DB11D8093220190932301A09324014E
:10015000B0932501BF91AF919F918F913F912F91C6
:100160000F900FBE0F901F90189526E8230F029650
:10017000A11DB11DD2CF789484B5826084BD84B5B1
:10018000816084BD85B5826085BD85B5816085BD92
:1001900080916E00816080936E001092810080914A
:1001A00081008260809381008091810081608093D2
:1001B0008100809180008160809380008091B100F7
:1001C00084608093B1008091B00081608093B00022
:1001D00080917A00846080937A0080917A008260B6
:1001E00080937A0080917A00816080937A00809178
:1001F0007A00806880937A001092C100E9E9F0E00B
:100200002491E5E8F0E08491882399F090E0880F4C
:10021000991FFC01EE58FF4FA591B491FC01E859DC
:10022000FF4F859194918FB7F894EC91E22BEC936A
:100230008FBF81E88093800089E080938100C2E2D3
:10024000D1E00BE811E080E0E82E80E0F82EE0E05D
:10025000F1E0819190E09093890080938800C8013B
:100260000197F1F7CE17DF07A1F7E114F10479F355
:0A0270000E940000ECCFF894FFCFCD
:10027A00001020314151625141312010000F181EE7
:10028A00212323211E180F00DCEDF7FDFFFDF7EDFA
:02029A00DC0086
:00000001FF
